:1000000010C02AC029C028C027C026C025C024C0CF
:1000100023C068C021C020C01FC01EC01DC01CC09E
:100020001BC011241FBECFE5D2E0DEBFCDBF10E064
:10003000A0E6B0E0E4E9F1E002C005900D92A03640
:10004000B107D9F710E0A0E6B0E001C01D92AD36CF
:10005000B107E1F702D09DC0D3CFF8948F9A0AD0B0
:1000600078941DD0809164008F3710F09798F9CF65
:10007000979AF7CF14BA8FEF85BB86B1897F86B97F
:1000800087B1866087B98A9A929810BC81E089B955
:100090008EE880BD80E98AB910926C00089583B320
:1000A0002FEF30E0281B31092A9903C020503F4F21
:1000B00003C02115310551F0309363002093620095
:1000C00057990FC010926C00579A0895579880E086
:1000D00090E0FC01EC59FF4F1082019688309105A9
:1000E000C1F708951F920F920FB60F9211242F930C
:1000F0008F939F93EF93FF938BB12CB190916C00F2
:1001000084FF0BC05C988091620090916300909393
:1001100061008093600081E005C0913031F42223BA
:1001200061F582E080936C002AC09230A9F480913E
:10013000600090916100019790936100809360004E
:10014000892BE9F481E090E0909361008093600056
:100150002093640083E0E6CF933089F480916000BF
:1001600090916100FC01EC59FF4F20830196909320
:10017000610080936000089710F010926C00FF916E
:10018000EF919F918F912F910F900FBE0F901F9025
:040190001895FFCFF0
:00000001FF
