:020000020000FC
:1000000011C0189518951895189518951895189564
:1000100018953BC01895189518951895189518952A
:1000200018951895F8940FE512E00DBF1EBF0FEF5D
:1000300006B907B90BD0789401D0FECF00916000CB
:100040000F3710F4389A0895389808958A9A92983C
:1000500001E009B9002700BD0EE800BD0CB1002782
:100060000BB9579A549A002704BB0FEF05BB06B192
:10007000097F06B907B1066007B9B0E0A0E600271E
:1000800022E00D932A95E9F708952FB61F930F9359
:100090000BB11CB104FD1FC0213041F0223079F0BA
:1000A000233090F40F911F912FBE18951123B1F4B6
:1000B0002395A3B3A095BB272A9BB395F3CF1197A4
:1000C00089F7B0E0A0E623951D93A23659F7B0302A
:1000D00049F72227E7CF21E05C98E4CF2227E2CF3F
:00000001FF
